{
  "address": "0x2956533f1d50dbA4505E641c956b1Ca04E487E30",
  "abi": [
    {
      "inputs": [],
      "stateMutability": "nonpayable",
      "type": "constructor"
    },
    {
      "anonymous": false,
      "inputs": [
        {
          "indexed": false,
          "internalType": "address",
          "name": "previousAdmin",
          "type": "address"
        },
        {
          "indexed": false,
          "internalType": "address",
          "name": "newAdmin",
          "type": "address"
        }
      ],
      "name": "AdminChanged",
      "type": "event"
    },
    {
      "anonymous": false,
      "inputs": [
        {
          "indexed": true,
          "internalType": "address",
          "name": "beacon",
          "type": "address"
        }
      ],
      "name": "BeaconUpgraded",
      "type": "event"
    },
    {
      "anonymous": false,
      "inputs": [
        {
          "indexed": false,
          "internalType": "address",
          "name": "claimer",
          "type": "address"
        },
        {
          "indexed": true,
          "internalType": "uint256",
          "name": "streamId",
          "type": "uint256"
        },
        {
          "indexed": false,
          "internalType": "uint256",
          "name": "ticketTokenId",
          "type": "uint256"
        },
        {
          "indexed": false,
          "internalType": "uint256",
          "name": "releasedAmount",
          "type": "uint256"
        }
      ],
      "name": "Claim",
      "type": "event"
    },
    {
      "anonymous": false,
      "inputs": [
        {
          "indexed": false,
          "internalType": "address",
          "name": "claimer",
          "type": "address"
        },
        {
          "indexed": true,
          "internalType": "uint256",
          "name": "streamId",
          "type": "uint256"
        },
        {
          "indexed": false,
          "internalType": "uint256[]",
          "name": "ticketTokenIds",
          "type": "uint256[]"
        },
        {
          "indexed": false,
          "internalType": "uint256",
          "name": "releasedAmount",
          "type": "uint256"
        }
      ],
      "name": "ClaimBulk",
      "type": "event"
    },
    {
      "anonymous": false,
      "inputs": [
        {
          "indexed": false,
          "internalType": "uint8",
          "name": "version",
          "type": "uint8"
        }
      ],
      "name": "Initialized",
      "type": "event"
    },
    {
      "anonymous": false,
      "inputs": [
        {
          "indexed": true,
          "internalType": "address",
          "name": "sender",
          "type": "address"
        },
        {
          "indexed": false,
          "internalType": "uint256",
          "name": "amount",
          "type": "uint256"
        }
      ],
      "name": "ReceivedEther",
      "type": "event"
    },
    {
      "anonymous": false,
      "inputs": [
        {
          "indexed": true,
          "internalType": "bytes32",
          "name": "role",
          "type": "bytes32"
        },
        {
          "indexed": true,
          "internalType": "bytes32",
          "name": "previousAdminRole",
          "type": "bytes32"
        },
        {
          "indexed": true,
          "internalType": "bytes32",
          "name": "newAdminRole",
          "type": "bytes32"
        }
      ],
      "name": "RoleAdminChanged",
      "type": "event"
    },
    {
      "anonymous": false,
      "inputs": [
        {
          "indexed": true,
          "internalType": "bytes32",
          "name": "role",
          "type": "bytes32"
        },
        {
          "indexed": true,
          "internalType": "address",
          "name": "account",
          "type": "address"
        },
        {
          "indexed": true,
          "internalType": "address",
          "name": "sender",
          "type": "address"
        }
      ],
      "name": "RoleGranted",
      "type": "event"
    },
    {
      "anonymous": false,
      "inputs": [
        {
          "indexed": true,
          "internalType": "bytes32",
          "name": "role",
          "type": "bytes32"
        },
        {
          "indexed": true,
          "internalType": "address",
          "name": "account",
          "type": "address"
        },
        {
          "indexed": true,
          "internalType": "address",
          "name": "sender",
          "type": "address"
        }
      ],
      "name": "RoleRevoked",
      "type": "event"
    },
    {
      "anonymous": false,
      "inputs": [
        {
          "indexed": true,
          "internalType": "uint256",
          "name": "streamId",
          "type": "uint256"
        },
        {
          "indexed": false,
          "internalType": "address",
          "name": "creator",
          "type": "address"
        },
        {
          "indexed": false,
          "internalType": "address",
          "name": "claimToken",
          "type": "address"
        },
        {
          "indexed": false,
          "internalType": "address",
          "name": "ticketToken",
          "type": "address"
        },
        {
          "indexed": false,
          "internalType": "uint256",
          "name": "emissionRate",
          "type": "uint256"
        },
        {
          "indexed": false,
          "internalType": "uint256",
          "name": "claimUnit",
          "type": "uint256"
        },
        {
          "indexed": false,
          "internalType": "uint256",
          "name": "claimStart",
          "type": "uint256"
        },
        {
          "indexed": false,
          "internalType": "uint256",
          "name": "claimEnd",
          "type": "uint256"
        }
      ],
      "name": "StreamRegistered",
      "type": "event"
    },
    {
      "anonymous": false,
      "inputs": [
        {
          "indexed": false,
          "internalType": "address",
          "name": "contributor",
          "type": "address"
        },
        {
          "indexed": true,
          "internalType": "uint256",
          "name": "streamId",
          "type": "uint256"
        },
        {
          "indexed": false,
          "internalType": "uint256",
          "name": "amount",
          "type": "uint256"
        }
      ],
      "name": "TopUp",
      "type": "event"
    },
    {
      "anonymous": false,
      "inputs": [
        {
          "indexed": true,
          "internalType": "address",
          "name": "implementation",
          "type": "address"
        }
      ],
      "name": "Upgraded",
      "type": "event"
    },
    {
      "inputs": [],
      "name": "DEFAULT_ADMIN_ROLE",
      "outputs": [
        {
          "internalType": "bytes32",
          "name": "",
          "type": "bytes32"
        }
      ],
      "stateMutability": "view",
      "type": "function"
    },
    {
      "inputs": [],
      "name": "UPGRADER_ROLE",
      "outputs": [
        {
          "internalType": "bytes32",
          "name": "",
          "type": "bytes32"
        }
      ],
      "stateMutability": "view",
      "type": "function"
    },
    {
      "inputs": [
        {
          "internalType": "uint256",
          "name": "streamId",
          "type": "uint256"
        },
        {
          "internalType": "uint256",
          "name": "ticketTokenId",
          "type": "uint256"
        }
      ],
      "name": "calculateClaimableAmountFractioned",
      "outputs": [
        {
          "internalType": "uint256",
          "name": "claimableAmount",
          "type": "uint256"
        }
      ],
      "stateMutability": "view",
      "type": "function"
    },
    {
      "inputs": [
        {
          "internalType": "uint256",
          "name": "streamId",
          "type": "uint256"
        },
        {
          "internalType": "uint256",
          "name": "ticketTokenId",
          "type": "uint256"
        }
      ],
      "name": "calculateClaimableAmountRounded",
      "outputs": [
        {
          "internalType": "uint256",
          "name": "claimableAmount",
          "type": "uint256"
        }
      ],
      "stateMutability": "view",
      "type": "function"
    },
    {
      "inputs": [
        {
          "internalType": "uint256",
          "name": "streamId",
          "type": "uint256"
        },
        {
          "internalType": "uint256",
          "name": "calcUntil",
          "type": "uint256"
        }
      ],
      "name": "calculateReleasedAmountFractioned",
      "outputs": [
        {
          "internalType": "uint256",
          "name": "",
          "type": "uint256"
        }
      ],
      "stateMutability": "view",
      "type": "function"
    },
    {
      "inputs": [
        {
          "internalType": "uint256",
          "name": "streamId",
          "type": "uint256"
        },
        {
          "internalType": "uint256",
          "name": "calcUntil",
          "type": "uint256"
        }
      ],
      "name": "calculateReleasedAmountRounded",
      "outputs": [
        {
          "internalType": "uint256",
          "name": "",
          "type": "uint256"
        }
      ],
      "stateMutability": "view",
      "type": "function"
    },
    {
      "inputs": [
        {
          "internalType": "uint256",
          "name": "streamId",
          "type": "uint256"
        },
        {
          "internalType": "uint256",
          "name": "ticketTokenId",
          "type": "uint256"
        }
      ],
      "name": "claim",
      "outputs": [],
      "stateMutability": "nonpayable",
      "type": "function"
    },
    {
      "inputs": [
        {
          "internalType": "uint256",
          "name": "streamId",
          "type": "uint256"
        },
        {
          "internalType": "uint256[]",
          "name": "ticketTokenIds",
          "type": "uint256[]"
        }
      ],
      "name": "claimBulk",
      "outputs": [],
      "stateMutability": "nonpayable",
      "type": "function"
    },
    {
      "inputs": [
        {
          "internalType": "uint256",
          "name": "",
          "type": "uint256"
        },
        {
          "internalType": "uint256",
          "name": "",
          "type": "uint256"
        }
      ],
      "name": "entitlements",
      "outputs": [
        {
          "internalType": "uint256",
          "name": "totalClaimed",
          "type": "uint256"
        },
        {
          "internalType": "uint256",
          "name": "lastClaimedAt",
          "type": "uint256"
        }
      ],
      "stateMutability": "view",
      "type": "function"
    },
    {
      "inputs": [
        {
          "internalType": "uint256",
          "name": "streamId",
          "type": "uint256"
        },
        {
          "internalType": "uint256",
          "name": "ticketTokenId",
          "type": "uint256"
        }
      ],
      "name": "getEntitlement",
      "outputs": [
        {
          "components": [
            {
              "internalType": "uint256",
              "name": "totalClaimed",
              "type": "uint256"
            },
            {
              "internalType": "uint256",
              "name": "lastClaimedAt",
              "type": "uint256"
            }
          ],
          "internalType": "struct ERC721VestedDistributor.Entitlement",
          "name": "",
          "type": "tuple"
        }
      ],
      "stateMutability": "view",
      "type": "function"
    },
    {
      "inputs": [
        {
          "internalType": "uint256",
          "name": "streamId",
          "type": "uint256"
        }
      ],
      "name": "getInfo",
      "outputs": [
        {
          "components": [
            {
              "internalType": "address",
              "name": "creator",
              "type": "address"
            },
            {
              "internalType": "address",
              "name": "claimToken",
              "type": "address"
            },
            {
              "internalType": "address",
              "name": "ticketToken",
              "type": "address"
            },
            {
              "internalType": "uint256",
              "name": "emissionRate",
              "type": "uint256"
            },
            {
              "internalType": "uint256",
              "name": "claimWindowUnit",
              "type": "uint256"
            },
            {
              "internalType": "uint256",
              "name": "claimStart",
              "type": "uint256"
            },
            {
              "internalType": "uint256",
              "name": "claimEnd",
              "type": "uint256"
            }
          ],
          "internalType": "struct ERC721VestedDistributor.Stream",
          "name": "stream",
          "type": "tuple"
        },
        {
          "internalType": "uint256",
          "name": "supply",
          "type": "uint256"
        },
        {
          "internalType": "uint256",
          "name": "used",
          "type": "uint256"
        }
      ],
      "stateMutability": "view",
      "type": "function"
    },
    {
      "inputs": [
        {
          "internalType": "bytes32",
          "name": "role",
          "type": "bytes32"
        }
      ],
      "name": "getRoleAdmin",
      "outputs": [
        {
          "internalType": "bytes32",
          "name": "",
          "type": "bytes32"
        }
      ],
      "stateMutability": "view",
      "type": "function"
    },
    {
      "inputs": [
        {
          "internalType": "uint256",
          "name": "streamId",
          "type": "uint256"
        },
        {
          "internalType": "uint256[]",
          "name": "ticketTokenIds",
          "type": "uint256[]"
        }
      ],
      "name": "getTotalClaimableBulk",
      "outputs": [
        {
          "internalType": "uint256",
          "name": "",
          "type": "uint256"
        }
      ],
      "stateMutability": "view",
      "type": "function"
    },
    {
      "inputs": [
        {
          "internalType": "uint256",
          "name": "streamId",
          "type": "uint256"
        },
        {
          "internalType": "uint256[]",
          "name": "ticketTokenIds",
          "type": "uint256[]"
        }
      ],
      "name": "getTotalClaimedBulk",
      "outputs": [
        {
          "internalType": "uint256",
          "name": "",
          "type": "uint256"
        }
      ],
      "stateMutability": "view",
      "type": "function"
    },
    {
      "inputs": [
        {
          "internalType": "bytes32",
          "name": "role",
          "type": "bytes32"
        },
        {
          "internalType": "address",
          "name": "account",
          "type": "address"
        }
      ],
      "name": "grantRole",
      "outputs": [],
      "stateMutability": "nonpayable",
      "type": "function"
    },
    {
      "inputs": [
        {
          "internalType": "bytes32",
          "name": "role",
          "type": "bytes32"
        },
        {
          "internalType": "address",
          "name": "account",
          "type": "address"
        }
      ],
      "name": "hasRole",
      "outputs": [
        {
          "internalType": "bool",
          "name": "",
          "type": "bool"
        }
      ],
      "stateMutability": "view",
      "type": "function"
    },
    {
      "inputs": [],
      "name": "initialize",
      "outputs": [],
      "stateMutability": "nonpayable",
      "type": "function"
    },
    {
      "inputs": [],
      "name": "lastStreamId",
      "outputs": [
        {
          "internalType": "uint256",
          "name": "_value",
          "type": "uint256"
        }
      ],
      "stateMutability": "view",
      "type": "function"
    },
    {
      "inputs": [],
      "name": "name",
      "outputs": [
        {
          "internalType": "string",
          "name": "",
          "type": "string"
        }
      ],
      "stateMutability": "view",
      "type": "function"
    },
    {
      "inputs": [],
      "name": "proxiableUUID",
      "outputs": [
        {
          "internalType": "bytes32",
          "name": "",
          "type": "bytes32"
        }
      ],
      "stateMutability": "view",
      "type": "function"
    },
    {
      "inputs": [
        {
          "internalType": "address",
          "name": "claimToken",
          "type": "address"
        },
        {
          "internalType": "address",
          "name": "ticketToken",
          "type": "address"
        },
        {
          "internalType": "uint256",
          "name": "emissionRate",
          "type": "uint256"
        },
        {
          "internalType": "uint256",
          "name": "claimWindowUnit",
          "type": "uint256"
        },
        {
          "internalType": "uint256",
          "name": "claimStart",
          "type": "uint256"
        },
        {
          "internalType": "uint256",
          "name": "claimEnd",
          "type": "uint256"
        }
      ],
      "name": "registerStream",
      "outputs": [],
      "stateMutability": "nonpayable",
      "type": "function"
    },
    {
      "inputs": [
        {
          "internalType": "bytes32",
          "name": "role",
          "type": "bytes32"
        },
        {
          "internalType": "address",
          "name": "account",
          "type": "address"
        }
      ],
      "name": "renounceRole",
      "outputs": [],
      "stateMutability": "nonpayable",
      "type": "function"
    },
    {
      "inputs": [
        {
          "internalType": "bytes32",
          "name": "role",
          "type": "bytes32"
        },
        {
          "internalType": "address",
          "name": "account",
          "type": "address"
        }
      ],
      "name": "revokeRole",
      "outputs": [],
      "stateMutability": "nonpayable",
      "type": "function"
    },
    {
      "inputs": [
        {
          "internalType": "uint256",
          "name": "streamId",
          "type": "uint256"
        },
        {
          "internalType": "uint256",
          "name": "newValue",
          "type": "uint256"
        }
      ],
      "name": "setClaimDurationUnit",
      "outputs": [],
      "stateMutability": "nonpayable",
      "type": "function"
    },
    {
      "inputs": [
        {
          "internalType": "uint256",
          "name": "streamId",
          "type": "uint256"
        },
        {
          "internalType": "uint256",
          "name": "newValue",
          "type": "uint256"
        }
      ],
      "name": "setClaimEnd",
      "outputs": [],
      "stateMutability": "nonpayable",
      "type": "function"
    },
    {
      "inputs": [
        {
          "internalType": "uint256",
          "name": "streamId",
          "type": "uint256"
        },
        {
          "internalType": "uint256",
          "name": "newValue",
          "type": "uint256"
        }
      ],
      "name": "setClaimStart",
      "outputs": [],
      "stateMutability": "nonpayable",
      "type": "function"
    },
    {
      "inputs": [
        {
          "internalType": "uint256",
          "name": "streamId",
          "type": "uint256"
        },
        {
          "internalType": "uint256",
          "name": "newValue",
          "type": "uint256"
        }
      ],
      "name": "setEmissionRate",
      "outputs": [],
      "stateMutability": "nonpayable",
      "type": "function"
    },
    {
      "inputs": [
        {
          "internalType": "uint256",
          "name": "",
          "type": "uint256"
        }
      ],
      "name": "streamSupply",
      "outputs": [
        {
          "internalType": "uint256",
          "name": "",
          "type": "uint256"
        }
      ],
      "stateMutability": "view",
      "type": "function"
    },
    {
      "inputs": [
        {
          "internalType": "uint256",
          "name": "",
          "type": "uint256"
        }
      ],
      "name": "streamUsed",
      "outputs": [
        {
          "internalType": "uint256",
          "name": "",
          "type": "uint256"
        }
      ],
      "stateMutability": "view",
      "type": "function"
    },
    {
      "inputs": [
        {
          "internalType": "uint256",
          "name": "",
          "type": "uint256"
        }
      ],
      "name": "streams",
      "outputs": [
        {
          "internalType": "address",
          "name": "creator",
          "type": "address"
        },
        {
          "internalType": "address",
          "name": "claimToken",
          "type": "address"
        },
        {
          "internalType": "address",
          "name": "ticketToken",
          "type": "address"
        },
        {
          "internalType": "uint256",
          "name": "emissionRate",
          "type": "uint256"
        },
        {
          "internalType": "uint256",
          "name": "claimWindowUnit",
          "type": "uint256"
        },
        {
          "internalType": "uint256",
          "name": "claimStart",
          "type": "uint256"
        },
        {
          "internalType": "uint256",
          "name": "claimEnd",
          "type": "uint256"
        }
      ],
      "stateMutability": "view",
      "type": "function"
    },
    {
      "inputs": [
        {
          "internalType": "bytes4",
          "name": "interfaceId",
          "type": "bytes4"
        }
      ],
      "name": "supportsInterface",
      "outputs": [
        {
          "internalType": "bool",
          "name": "",
          "type": "bool"
        }
      ],
      "stateMutability": "view",
      "type": "function"
    },
    {
      "inputs": [
        {
          "internalType": "uint256",
          "name": "streamId",
          "type": "uint256"
        },
        {
          "internalType": "uint256",
          "name": "amount",
          "type": "uint256"
        }
      ],
      "name": "topUp",
      "outputs": [],
      "stateMutability": "payable",
      "type": "function"
    },
    {
      "inputs": [
        {
          "internalType": "address",
          "name": "newImplementation",
          "type": "address"
        }
      ],
      "name": "upgradeTo",
      "outputs": [],
      "stateMutability": "nonpayable",
      "type": "function"
    },
    {
      "inputs": [
        {
          "internalType": "address",
          "name": "newImplementation",
          "type": "address"
        },
        {
          "internalType": "bytes",
          "name": "data",
          "type": "bytes"
        }
      ],
      "name": "upgradeToAndCall",
      "outputs": [],
      "stateMutability": "payable",
      "type": "function"
    },
    {
      "inputs": [],
      "name": "version",
      "outputs": [
        {
          "internalType": "string",
          "name": "",
          "type": "string"
        }
      ],
      "stateMutability": "view",
      "type": "function"
    },
    {
      "stateMutability": "payable",
      "type": "receive"
    }
  ],
  "transactionHash": "0xb6b3d1d6388faafe2f1083383f23cce80c5cf0823c46f86dbf2b962117518160",
  "args": [],
  "numDeployments": 2,
  "solcInputHash": "1b3ac8497cafd1a78ca004765248e5b9",
  "bytecode": "0x60a0604052306080523480156200001557600080fd5b5060006200002460016200008b565b905080156200003d576000805461ff0019166101001790555b801562000084576000805461ff0019169055604051600181527f7f26b83ff96e1f2b6a682f133852f6798a09c465da95921460cefb38474024989060200160405180910390a15b5062000195565b60008054610100900460ff1615620000f4578160ff166001148015620000c45750620000c2306200013860201b62001bfb1760201c565b155b620000ec5760405162461bcd60e51b8152600401620000e39062000147565b60405180910390fd5b506000919050565b60005460ff8084169116106200011e5760405162461bcd60e51b8152600401620000e39062000147565b506000805460ff191660ff92909216919091179055600190565b6001600160a01b03163b151590565b6020808252602e908201527f496e697469616c697a61626c653a20636f6e747261637420697320616c72656160408201526d191e481a5b9a5d1a585b1a5e995960921b606082015260800190565b608051612d6c620001cd60003960008181610e2e01528181610e6e0152818161104d0152818161108d01526111050152612d6c6000f3fe6080604052600436106101985760003560e01c806301ffc9a7146101d957806306fdde031461020e57806307b4ad081461023057806318f38778146102525780631a3cd59a1461028e5780631db75ea41461031b578063248a9ca3146103495780632933a422146103695780632f2ff15d1461038957806331cc3ffb146103a95780633425a5b7146103fe57806336568abe146104165780633659cfe61461043657806339666120146104565780633ad5f7a6146104765780633efe8fbc146104965780633f71e600146104b65780634f1ef286146104d657806352d1902d146104e957806354fd4d50146104fe5780635957f9a01461052d5780635fa0934d1461054d57806364d60d911461056d5780636a84d91d146105e75780637b49bb62146106225780638129fc1c146106425780638efef21a1461065757806391d1485414610677578063a217fddf14610697578063c3490263146106ac578063d547741f146106cc578063de643a71146106ec578063e4dc14f8146106ff578063f72c0d8b1461071f578063fe36a2831461074157600080fd5b366101d45760405134815233907fa419615bc8fda4c87663805ee2a3597a6d71c1d476911d9892f340d965bc7bf19060200160405180910390a2005b600080fd5b3480156101e557600080fd5b506101f96101f43660046124fa565b610761565b60405190151581526020015b60405180910390f35b34801561021a57600080fd5b50610223610798565b6040516102059190612550565b34801561023c57600080fd5b5061025061024b366004612583565b6107b4565b005b34801561025e57600080fd5b5061028061026d3660046125a5565b61012f6020526000908152604090205481565b604051908152602001610205565b34801561029a57600080fd5b506102ae6102a93660046125a5565b61080a565b6040805184516001600160a01b039081168252602080870151821690830152858301511691810191909152606080850151908201526080808501519082015260a0808501519082015260c0938401519381019390935260e083019190915261010082015261012001610205565b34801561032757600080fd5b506102806103363660046125a5565b6101306020526000908152604090205481565b34801561035557600080fd5b506102806103643660046125a5565b6108ea565b34801561037557600080fd5b506102506103843660046125be565b6108ff565b34801561039557600080fd5b506102506103a4366004612651565b610d84565b3480156103b557600080fd5b506103e96103c4366004612583565b6101316020908152600092835260408084209091529082529020805460019091015482565b60408051928352602083019190915201610205565b34801561040a57600080fd5b5061012d546102809081565b34801561042257600080fd5b50610250610431366004612651565b610da5565b34801561044257600080fd5b50610250610451366004612681565b610e23565b34801561046257600080fd5b50610280610471366004612583565b610eec565b34801561048257600080fd5b506102806104913660046125be565b610f51565b3480156104a257600080fd5b506102506104b1366004612583565b610fa8565b3480156104c257600080fd5b506102506104d1366004612583565b610ff5565b6102506104e43660046126b4565b611042565b3480156104f557600080fd5b506102806110f8565b34801561050a57600080fd5b5061022360405180604001604052806003815260200162302e3160e81b81525081565b34801561053957600080fd5b50610280610548366004612583565b6111a6565b34801561055957600080fd5b50610280610568366004612583565b6111f6565b34801561057957600080fd5b506105d46105883660046125a5565b61012e6020526000908152604090208054600182015460028301546003840154600485015460058601546006909601546001600160a01b03958616969486169590931693919290919087565b6040516102059796959493929190612777565b3480156105f357600080fd5b50610607610602366004612583565b611236565b60408051825181526020928301519281019290925201610205565b34801561062e57600080fd5b5061025061063d3660046127b8565b611278565b34801561064e57600080fd5b506102506113de565b34801561066357600080fd5b506102806106723660046125be565b61147d565b34801561068357600080fd5b506101f9610692366004612651565b6114be565b3480156106a357600080fd5b50610280600081565b3480156106b857600080fd5b506102506106c7366004612583565b6114e9565b3480156106d857600080fd5b506102506106e7366004612651565b6118f5565b6102506106fa366004612583565b611911565b34801561070b57600080fd5b5061025061071a366004612583565b611b41565b34801561072b57600080fd5b50610280600080516020612ca783398151915281565b34801561074d57600080fd5b5061028061075c366004612583565b611b8e565b60006001600160e01b03198216637965db0b60e01b148061079257506301ffc9a760e01b6001600160e01b03198316145b92915050565b604051806060016040528060298152602001612ce76029913981565b600082815261012e60205260409020546001600160a01b031633146107f45760405162461bcd60e51b81526004016107eb90612811565b60405180910390fd5b600091825261012e602052604090912060050155565b6108656040518060e0016040528060006001600160a01b0316815260200160006001600160a01b0316815260200160006001600160a01b03168152602001600081526020016000815260200160008152602001600081525090565b50600081815261012e60209081526040808320815160e08101835281546001600160a01b0390811682526001830154811682860152600283015416818401526003820154606082015260048201546080820152600582015460a082015260069091015460c082015293835261013082528083205461012f909252909120549192909190565b600090815260c9602052604090206001015490565b600260fb5414156109225760405162461bcd60e51b81526004016107eb90612840565b600260fb55600083815261012e60205260409020546001600160a01b031661095c5760405162461bcd60e51b81526004016107eb90612877565b600083815261012e6020526040902060050154421161098d5760405162461bcd60e51b81526004016107eb906128a9565b600083815261012f60209081526040808320546101309092528220546109b391906128f0565b116109d05760405162461bcd60e51b81526004016107eb90612907565b600083815261012e602052604081206004015481906109ef90426128f0565b905060005b83811015610c01576000868152610131602052604081208391878785818110610a1f57610a1f612939565b9050602002013581526020019081526020016000206001015410610a555760405162461bcd60e51b81526004016107eb9061294f565b600086815261012e602052604090206002015433906001600160a01b0316636352211e878785818110610a8a57610a8a612939565b905060200201356040518263ffffffff1660e01b8152600401610aaf91815260200190565b60206040518083038186803b158015610ac757600080fd5b505afa158015610adb573d6000803e3d6000fd5b505050506040513d601f19601f82011682018060405250810190610aff919061297e565b6001600160a01b031614610b255760405162461bcd60e51b81526004016107eb9061299b565b6000610b4987878785818110610b3d57610b3d612939565b90506020020135610eec565b90508015610bee576000878152610131602052604081208291888886818110610b7457610b74612939565b9050602002013581526020019081526020016000206000016000828254610b9b91906129ce565b90915550506000878152610131602052604081204291888886818110610bc357610bc3612939565b905060200201358152602001908152602001600020600101819055508084610beb91906129ce565b93505b5080610bf9816129e6565b9150506109f4565b50600085815261012f6020908152604080832054610130909252909120548391610c2a916128f0565b1015610c485760405162461bcd60e51b81526004016107eb90612a01565b600085815261012f602052604081208054849290610c679084906129ce565b9091555050600085815261012e60205260409020600101546001600160a01b0316610ca657610ca182335b6001600160a01b031690611c0a565b610d3a565b600085815261012e60205260409020600101546001600160a01b031663a9059cbb33846040518363ffffffff1660e01b8152600401610ce6929190612a36565b602060405180830381600087803b158015610d0057600080fd5b505af1158015610d14573d6000803e3d6000fd5b505050506040513d601f19601f82011682018060405250810190610d389190612a4f565b505b847f8025d0849674cd73170bbd68789c24483d82022bfd2863b17ab1c2a08ce8bf4033868686604051610d709493929190612a71565b60405180910390a25050600160fb55505050565b610d8d826108ea565b610d9681611d20565b610da08383611d2a565b505050565b6001600160a01b0381163314610e155760405162461bcd60e51b815260206004820152602f60248201527f416363657373436f6e74726f6c3a2063616e206f6e6c792072656e6f756e636560448201526e103937b632b9903337b91039b2b63360891b60648201526084016107eb565b610e1f8282611db0565b5050565b306001600160a01b037f0000000000000000000000000000000000000000000000000000000000000000161415610e6c5760405162461bcd60e51b81526004016107eb90612ac8565b7f00000000000000000000000000000000000000000000000000000000000000006001600160a01b0316610e9e611e17565b6001600160a01b031614610ec45760405162461bcd60e51b81526004016107eb90612b02565b610ecd81611e33565b60408051600080825260208201909252610ee991839190611e4b565b50565b60008281526101316020908152604080832084845282528083205485845261012e909252822060060154610f409085904211610f285742611b8e565b600086815261012e6020526040902060060154611b8e565b610f4a91906128f0565b9392505050565b600080805b83811015610f9f57610f8086868684818110610f7457610f74612939565b90506020020135611236565b51610f8b90836129ce565b915080610f97816129e6565b915050610f56565b50949350505050565b600082815261012e60205260409020546001600160a01b03163314610fdf5760405162461bcd60e51b81526004016107eb90612811565b600091825261012e602052604090912060060155565b600082815261012e60205260409020546001600160a01b0316331461102c5760405162461bcd60e51b81526004016107eb90612811565b600091825261012e602052604090912060030155565b306001600160a01b037f000000000000000000000000000000000000000000000000000000000000000016141561108b5760405162461bcd60e51b81526004016107eb90612ac8565b7f00000000000000000000000000000000000000000000000000000000000000006001600160a01b03166110bd611e17565b6001600160a01b0316146110e35760405162461bcd60e51b81526004016107eb90612b02565b6110ec82611e33565b610e1f82826001611e4b565b6000306001600160a01b037f000000000000000000000000000000000000000000000000000000000000000016146111935760405162461bcd60e51b815260206004820152603860248201527f555550535570677261646561626c653a206d757374206e6f742062652063616c6044820152771b1959081d1a1c9bdd59da0819195b1959d85d1958d85b1b60421b60648201526084016107eb565b50600080516020612cc783398151915290565b60008281526101316020908152604080832084845282528083205485845261012e909252822060060154610f4090859042116111e257426111f6565b600086815261012e60205260409020600601545b600082815261012e602052604081206004810154600382015460059092015490919061122290856128f0565b61122c9190612b3c565b610f4a9190612b5b565b60408051808201825260008082526020918201819052938452610131815281842092845291825291829020825180840190935280548352600101549082015290565b600260fb54141561129b5760405162461bcd60e51b81526004016107eb90612840565b600260fb556112af61012d80546001019055565b60006112bb61012d5490565b90506040518060e001604052806112cf3390565b6001600160a01b03908116825289811660208084019190915289821660408085019190915260608085018b905260808086018b905260a08087018b905260c09687018a9052600089815261012e8652849020885181549088166001600160a01b031991821617825595890151600182018054918916918816919091179055938801516002850180549190971695169490941790945585015160038201559184015160048301558301516005820155910151600690910155807f604aa75c57e22bb3ca2615a7cb6c776aab519dc202c755023a9650d058703c4b6113af3390565b8989898989896040516113c89796959493929190612777565b60405180910390a25050600160fb555050505050565b60006113ea6001611fc5565b90508015611402576000805461ff0019166101001790555b61140a612054565b611412612054565b61141d6000336120c1565b611435600080516020612ca7833981519152336120c1565b8015610ee9576000805461ff0019169055604051600181527f7f26b83ff96e1f2b6a682f133852f6798a09c465da95921460cefb38474024989060200160405180910390a150565b600080805b83811015610f9f576114a086868684818110610b3d57610b3d612939565b6114aa90836129ce565b9150806114b6816129e6565b915050611482565b600091825260c9602090815260408084206001600160a01b0393909316845291905290205460ff1690565b600260fb54141561150c5760405162461bcd60e51b81526004016107eb90612840565b600260fb55600082815261012e60205260409020546001600160a01b03166115465760405162461bcd60e51b81526004016107eb90612877565b600082815261012e602052604090206005015442116115775760405162461bcd60e51b81526004016107eb906128a9565b600082815261012f602090815260408083205461013090925282205461159d91906128f0565b116115ba5760405162461bcd60e51b81526004016107eb90612907565b600082815261012e60205260409020600401546115d790426128f0565b600083815261013160209081526040808320858452909152902060010154106116125760405162461bcd60e51b81526004016107eb9061294f565b33600083815261012e6020526040908190206002015490516331a9108f60e11b8152600481018490526001600160a01b039283169290911690636352211e9060240160206040518083038186803b15801561166c57600080fd5b505afa158015611680573d6000803e3d6000fd5b505050506040513d601f19601f820116820180604052508101906116a4919061297e565b6001600160a01b0316146116ca5760405162461bcd60e51b81526004016107eb9061299b565b60006116d68383610eec565b9050600081116117275760405162461bcd60e51b815260206004820152601c60248201527b4449535452494255544f522f4e4f5448494e475f544f5f434c41494d60201b60448201526064016107eb565b600083815261012f602090815260408083205461013090925290912054829161174f916128f0565b101561176d5760405162461bcd60e51b81526004016107eb90612a01565b600083815261013160209081526040808320858452909152812080548392906117979084906129ce565b909155505060008381526101316020908152604080832085845282528083204260019091015585835261012f909152812080548392906117d89084906129ce565b9091555050600083815261012e60205260409020600101546001600160a01b031661180c576118078133610c92565b6118a0565b600083815261012e60205260409020600101546001600160a01b031663a9059cbb33836040518363ffffffff1660e01b815260040161184c929190612a36565b602060405180830381600087803b15801561186657600080fd5b505af115801561187a573d6000803e3d6000fd5b505050506040513d601f19601f8201168201806040525081019061189e9190612a4f565b505b827f45c072aa05b9853b5a993de7a28bc332ee01404a628cec1a23ce0f659f842ef133604080516001600160a01b03909216825260208201869052810184905260600160405180910390a25050600160fb5550565b6118fe826108ea565b61190781611d20565b610da08383611db0565b600260fb5414156119345760405162461bcd60e51b81526004016107eb90612840565b600260fb55600082815261012e60205260409020546001600160a01b031661196e5760405162461bcd60e51b81526004016107eb90612877565b600081116119bb5760405162461bcd60e51b815260206004820152601a602482015279111254d5149250955513d48bd35254d4d25391d7d05353d5539560321b60448201526064016107eb565b600082815261012e60205260409020600101546001600160a01b0316611a2f57803414611a2a5760405162461bcd60e51b815260206004820152601d60248201527f4449535452494255544f522f494e434f52524543545f5041594d454e5400000060448201526064016107eb565b611ad9565b600082815261012e60205260409020600101546001600160a01b03166323b872dd336040516001600160e01b031960e084901b1681526001600160a01b03909116600482015230602482015260448101849052606401602060405180830381600087803b158015611a9f57600080fd5b505af1158015611ab3573d6000803e3d6000fd5b505050506040513d601f19601f82011682018060405250810190611ad79190612a4f565b505b6000828152610130602052604081208054839290611af89084906129ce565b909155508290507ff0f5a6096b2a43fc10bc314148e9ac3851fd8455384682f3c3cd9d2f0bc71b173383604051611b30929190612a36565b60405180910390a25050600160fb55565b600082815261012e60205260409020546001600160a01b03163314611b785760405162461bcd60e51b81526004016107eb90612811565b600091825261012e602052604090912060040155565b600082815261012e6020526040812060050154821015611bb057506000610792565b600083815261012e602052604090206004810154600590910154611bd490846128f0565b611bde9190612b5b565b600084815261012e6020526040902060030154610f4a9190612b3c565b6001600160a01b03163b151590565b80471015611c5a5760405162461bcd60e51b815260206004820152601d60248201527f416464726573733a20696e73756666696369656e742062616c616e636500000060448201526064016107eb565b6000826001600160a01b03168260405160006040518083038185875af1925050503d8060008114611ca7576040519150601f19603f3d011682016040523d82523d6000602084013e611cac565b606091505b5050905080610da05760405162461bcd60e51b815260206004820152603a60248201527f416464726573733a20756e61626c6520746f2073656e642076616c75652c20726044820152791958da5c1a595b9d081b585e481a185d99481c995d995c9d195960321b60648201526084016107eb565b610ee981336120cb565b611d3482826114be565b610e1f57600082815260c9602090815260408083206001600160a01b03851684529091529020805460ff19166001179055611d6c3390565b6001600160a01b0316816001600160a01b0316837f2f8788117e7eff1d82e926ec794901d17c78024a50270940304540a733656f0d60405160405180910390a45050565b611dba82826114be565b15610e1f57600082815260c9602090815260408083206001600160a01b0385168085529252808320805460ff1916905551339285917ff6391f5c32d9c69d2a47ea670b442974b53935d1edc7fd64eb21e047a839171b9190a45050565b600080516020612cc7833981519152546001600160a01b031690565b600080516020612ca7833981519152610e1f81611d20565b7f4910fdfa16fed3260ed0e7147f7cc6da11a60208b5b9406d12a635614ffd91435460ff1615611e7e57610da08361212f565b826001600160a01b03166352d1902d6040518163ffffffff1660e01b815260040160206040518083038186803b158015611eb757600080fd5b505afa925050508015611ee7575060408051601f3d908101601f19168201909252611ee491810190612b7d565b60015b611f4a5760405162461bcd60e51b815260206004820152602e60248201527f45524331393637557067726164653a206e657720696d706c656d656e7461746960448201526d6f6e206973206e6f74205555505360901b60648201526084016107eb565b600080516020612cc78339815191528114611fb95760405162461bcd60e51b815260206004820152602960248201527f45524331393637557067726164653a20756e737570706f727465642070726f786044820152681a58589b195555525160ba1b60648201526084016107eb565b50610da08383836121c9565b60008054610100900460ff1615612013578160ff166001148015611fef5750611fed30611bfb565b155b61200b5760405162461bcd60e51b81526004016107eb90612b96565b506000919050565b60005460ff80841691161061203a5760405162461bcd60e51b81526004016107eb90612b96565b506000805460ff191660ff92909216919091179055600190565b600054610100900460ff166120bf5760405162461bcd60e51b815260206004820152602b60248201527f496e697469616c697a61626c653a20636f6e7472616374206973206e6f74206960448201526a6e697469616c697a696e6760a81b60648201526084016107eb565b565b610e1f8282611d2a565b6120d582826114be565b610e1f576120ed816001600160a01b031660146121f4565b6120f88360206121f4565b604051602001612109929190612be4565b60408051601f198184030181529082905262461bcd60e51b82526107eb91600401612550565b61213881611bfb565b61219a5760405162461bcd60e51b815260206004820152602d60248201527f455243313936373a206e657720696d706c656d656e746174696f6e206973206e60448201526c1bdd08184818dbdb9d1c9858dd609a1b60648201526084016107eb565b600080516020612cc783398151915280546001600160a01b0319166001600160a01b0392909216919091179055565b6121d28361238f565b6000825111806121df5750805b15610da0576121ee83836123cf565b50505050565b60606000612203836002612b3c565b61220e9060026129ce565b6001600160401b038111156122255761222561269e565b6040519080825280601f01601f19166020018201604052801561224f576020820181803683370190505b509050600360fc1b8160008151811061226a5761226a612939565b60200101906001600160f81b031916908160001a905350600f60fb1b8160018151811061229957612299612939565b60200101906001600160f81b031916908160001a90535060006122bd846002612b3c565b6122c89060016129ce565b90505b6001811115612340576f181899199a1a9b1b9c1cb0b131b232b360811b85600f16601081106122fc576122fc612939565b1a60f81b82828151811061231257612312612939565b60200101906001600160f81b031916908160001a90535060049490941c9361233981612c53565b90506122cb565b508315610f4a5760405162461bcd60e51b815260206004820181905260248201527f537472696e67733a20686578206c656e67746820696e73756666696369656e7460448201526064016107eb565b6123988161212f565b6040516001600160a01b038216907fbc7cd75a20ee27fd9adebab32041f755214dbc6bffa90cc0225b39da2e5c2d3b90600090a250565b60606123da83611bfb565b6124355760405162461bcd60e51b815260206004820152602660248201527f416464726573733a2064656c65676174652063616c6c20746f206e6f6e2d636f6044820152651b9d1c9858dd60d21b60648201526084016107eb565b600080846001600160a01b0316846040516124509190612c6a565b600060405180830381855af49150503d806000811461248b576040519150601f19603f3d011682016040523d82523d6000602084013e612490565b606091505b50915091506124b88282604051806060016040528060278152602001612d10602791396124c1565b95945050505050565b606083156124d0575081610f4a565b8251156124e05782518084602001fd5b8160405162461bcd60e51b81526004016107eb9190612550565b60006020828403121561250c57600080fd5b81356001600160e01b031981168114610f4a57600080fd5b60005b8381101561253f578181015183820152602001612527565b838111156121ee5750506000910152565b602081526000825180602084015261256f816040850160208701612524565b601f01601f19169190910160400192915050565b6000806040838503121561259657600080fd5b50508035926020909101359150565b6000602082840312156125b757600080fd5b5035919050565b6000806000604084860312156125d357600080fd5b8335925060208401356001600160401b03808211156125f157600080fd5b818601915086601f83011261260557600080fd5b81358181111561261457600080fd5b8760208260051b850101111561262957600080fd5b6020830194508093505050509250925092565b6001600160a01b0381168114610ee957600080fd5b6000806040838503121561266457600080fd5b8235915060208301356126768161263c565b809150509250929050565b60006020828403121561269357600080fd5b8135610f4a8161263c565b634e487b7160e01b600052604160045260246000fd5b600080604083850312156126c757600080fd5b82356126d28161263c565b915060208301356001600160401b03808211156126ee57600080fd5b818501915085601f83011261270257600080fd5b8135818111156127145761271461269e565b604051601f8201601f19908116603f0116810190838211818310171561273c5761273c61269e565b8160405282815288602084870101111561275557600080fd5b8260208601602083013760006020848301015280955050505050509250929050565b6001600160a01b03978816815295871660208701529390951660408501526060840191909152608083015260a082019290925260c081019190915260e00190565b60008060008060008060c087890312156127d157600080fd5b86356127dc8161263c565b955060208701356127ec8161263c565b95989597505050506040840135936060810135936080820135935060a0909101359150565b6020808252601590820152742224a9aa2924a12aaa27a917a727aa2fa7aba722a960591b604082015260600190565b6020808252601f908201527f5265656e7472616e637947756172643a207265656e7472616e742063616c6c00604082015260600190565b6020808252601890820152774449535452494255544f522f57524f4e475f53545245414d60401b604082015260600190565b602080825260179082015276111254d5149250955513d48bd393d517d4d51054951151604a1b604082015260600190565b634e487b7160e01b600052601160045260246000fd5b600082821015612902576129026128da565b500390565b6020808252601890820152774449535452494255544f522f53545245414d5f454d50545960401b604082015260600190565b634e487b7160e01b600052603260045260246000fd5b6020808252601590820152744449535452494255544f522f544f4f5f4541524c5960581b604082015260600190565b60006020828403121561299057600080fd5b8151610f4a8161263c565b6020808252601990820152782224a9aa2924a12aaa27a917a727aa2fa7232a2fa7aba722a960391b604082015260600190565b600082198211156129e1576129e16128da565b500190565b60006000198214156129fa576129fa6128da565b5060010190565b6020808252601b908201527a111254d5149250955513d48bd4d51491505357d111541311551151602a1b604082015260600190565b6001600160a01b03929092168252602082015260400190565b600060208284031215612a6157600080fd5b81518015158114610f4a57600080fd5b6001600160a01b0385168152606060208201819052810183905260006001600160fb1b03841115612aa157600080fd5b8360051b808660808501376000908301608001908152604090920192909252949350505050565b6020808252602c90820152600080516020612c8783398151915260408201526b19195b1959d85d1958d85b1b60a21b606082015260800190565b6020808252602c90820152600080516020612c8783398151915260408201526b6163746976652070726f787960a01b606082015260800190565b6000816000190483118215151615612b5657612b566128da565b500290565b600082612b7857634e487b7160e01b600052601260045260246000fd5b500490565b600060208284031215612b8f57600080fd5b5051919050565b6020808252602e908201527f496e697469616c697a61626c653a20636f6e747261637420697320616c72656160408201526d191e481a5b9a5d1a585b1a5e995960921b606082015260800190565b76020b1b1b2b9b9a1b7b73a3937b61d1030b1b1b7bab73a1604d1b815260008351612c16816017850160208801612524565b7001034b99036b4b9b9b4b733903937b6329607d1b6017918401918201528351612c47816028840160208801612524565b01602801949350505050565b600081612c6257612c626128da565b506000190190565b60008251612c7c818460208701612524565b919091019291505056fe46756e6374696f6e206d7573742062652063616c6c6564207468726f75676820189ab7a9244df0848122154315af71fe140f3db0fe014031783b0946b8c9d2e3360894a13ba1a3210667c828492db98dca3e2076cc3735a920a3ca505d382bbc466c61697220455243373231204c696e656172204175746f6d61746963204469737472696275746f72416464726573733a206c6f772d6c6576656c2064656c65676174652063616c6c206661696c6564a2646970667358221220dbcafeebcba4d08662f6a20cde22bacf2a15584945be1e7bc85eda628bec039764736f6c63430008090033",
  "devdoc": {
    "kind": "dev",
    "methods": {
      "constructor": {
        "custom:oz-upgrades-unsafe-allow": "constructor"
      },
      "getRoleAdmin(bytes32)": {
        "details": "Returns the admin role that controls `role`. See {grantRole} and {revokeRole}. To change a role's admin, use {_setRoleAdmin}."
      },
      "grantRole(bytes32,address)": {
        "details": "Grants `role` to `account`. If `account` had not been already granted `role`, emits a {RoleGranted} event. Requirements: - the caller must have ``role``'s admin role."
      },
      "hasRole(bytes32,address)": {
        "details": "Returns `true` if `account` has been granted `role`."
      },
      "proxiableUUID()": {
        "details": "Implementation of the ERC1822 {proxiableUUID} function. This returns the storage slot used by the implementation. It is used to validate that the this implementation remains valid after an upgrade. IMPORTANT: A proxy pointing at a proxiable contract should not be considered proxiable itself, because this risks bricking a proxy that upgrades to it, by delegating to itself until out of gas. Thus it is critical that this function revert if invoked through a proxy. This is guaranteed by the `notDelegated` modifier."
      },
      "renounceRole(bytes32,address)": {
        "details": "Revokes `role` from the calling account. Roles are often managed via {grantRole} and {revokeRole}: this function's purpose is to provide a mechanism for accounts to lose their privileges if they are compromised (such as when a trusted device is misplaced). If the calling account had been revoked `role`, emits a {RoleRevoked} event. Requirements: - the caller must be `account`."
      },
      "revokeRole(bytes32,address)": {
        "details": "Revokes `role` from `account`. If `account` had been granted `role`, emits a {RoleRevoked} event. Requirements: - the caller must have ``role``'s admin role."
      },
      "supportsInterface(bytes4)": {
        "details": "See {IERC165-supportsInterface}."
      },
      "upgradeTo(address)": {
        "details": "Upgrade the implementation of the proxy to `newImplementation`. Calls {_authorizeUpgrade}. Emits an {Upgraded} event."
      },
      "upgradeToAndCall(address,bytes)": {
        "details": "Upgrade the implementation of the proxy to `newImplementation`, and subsequently execute the function call encoded in `data`. Calls {_authorizeUpgrade}. Emits an {Upgraded} event."
      }
    },
    "version": 1
  },
  "userdoc": {
    "kind": "user",
    "methods": {},
    "version": 1
  },
  "storageLayout": {
    "storage": [
      {
        "astId": 1190,
        "contract": "contracts/streams/ERC721/ERC721VestedDistributor.sol:ERC721VestedDistributor",
        "label": "_initialized",
        "offset": 0,
        "slot": "0",
        "type": "t_uint8"
      },
      {
        "astId": 1193,
        "contract": "contracts/streams/ERC721/ERC721VestedDistributor.sol:ERC721VestedDistributor",
        "label": "_initializing",
        "offset": 1,
        "slot": "0",
        "type": "t_bool"
      },
      {
        "astId": 1172,
        "contract": "contracts/streams/ERC721/ERC721VestedDistributor.sol:ERC721VestedDistributor",
        "label": "__gap",
        "offset": 0,
        "slot": "1",
        "type": "t_array(t_uint256)50_storage"
      },
      {
        "astId": 1460,
        "contract": "contracts/streams/ERC721/ERC721VestedDistributor.sol:ERC721VestedDistributor",
        "label": "__gap",
        "offset": 0,
        "slot": "51",
        "type": "t_array(t_uint256)50_storage"
      },
      {
        "astId": 1804,
        "contract": "contracts/streams/ERC721/ERC721VestedDistributor.sol:ERC721VestedDistributor",
        "label": "__gap",
        "offset": 0,
        "slot": "101",
        "type": "t_array(t_uint256)50_storage"
      },
      {
        "astId": 2111,
        "contract": "contracts/streams/ERC721/ERC721VestedDistributor.sol:ERC721VestedDistributor",
        "label": "__gap",
        "offset": 0,
        "slot": "151",
        "type": "t_array(t_uint256)50_storage"
      },
      {
        "astId": 421,
        "contract": "contracts/streams/ERC721/ERC721VestedDistributor.sol:ERC721VestedDistributor",
        "label": "_roles",
        "offset": 0,
        "slot": "201",
        "type": "t_mapping(t_bytes32,t_struct(RoleData)416_storage)"
      },
      {
        "astId": 720,
        "contract": "contracts/streams/ERC721/ERC721VestedDistributor.sol:ERC721VestedDistributor",
        "label": "__gap",
        "offset": 0,
        "slot": "202",
        "type": "t_array(t_uint256)49_storage"
      },
      {
        "astId": 1475,
        "contract": "contracts/streams/ERC721/ERC721VestedDistributor.sol:ERC721VestedDistributor",
        "label": "_status",
        "offset": 0,
        "slot": "251",
        "type": "t_uint256"
      },
      {
        "astId": 1519,
        "contract": "contracts/streams/ERC721/ERC721VestedDistributor.sol:ERC721VestedDistributor",
        "label": "__gap",
        "offset": 0,
        "slot": "252",
        "type": "t_array(t_uint256)49_storage"
      },
      {
        "astId": 11123,
        "contract": "contracts/streams/ERC721/ERC721VestedDistributor.sol:ERC721VestedDistributor",
        "label": "lastStreamId",
        "offset": 0,
        "slot": "301",
        "type": "t_struct(Counter)5641_storage"
      },
      {
        "astId": 11128,
        "contract": "contracts/streams/ERC721/ERC721VestedDistributor.sol:ERC721VestedDistributor",
        "label": "streams",
        "offset": 0,
        "slot": "302",
        "type": "t_mapping(t_uint256,t_struct(Stream)11120_storage)"
      },
      {
        "astId": 11132,
        "contract": "contracts/streams/ERC721/ERC721VestedDistributor.sol:ERC721VestedDistributor",
        "label": "streamUsed",
        "offset": 0,
        "slot": "303",
        "type": "t_mapping(t_uint256,t_uint256)"
      },
      {
        "astId": 11136,
        "contract": "contracts/streams/ERC721/ERC721VestedDistributor.sol:ERC721VestedDistributor",
        "label": "streamSupply",
        "offset": 0,
        "slot": "304",
        "type": "t_mapping(t_uint256,t_uint256)"
      },
      {
        "astId": 11143,
        "contract": "contracts/streams/ERC721/ERC721VestedDistributor.sol:ERC721VestedDistributor",
        "label": "entitlements",
        "offset": 0,
        "slot": "305",
        "type": "t_mapping(t_uint256,t_mapping(t_uint256,t_struct(Entitlement)11105_storage))"
      }
    ],
    "types": {
      "t_address": {
        "encoding": "inplace",
        "label": "address",
        "numberOfBytes": "20"
      },
      "t_array(t_uint256)49_storage": {
        "base": "t_uint256",
        "encoding": "inplace",
        "label": "uint256[49]",
        "numberOfBytes": "1568"
      },
      "t_array(t_uint256)50_storage": {
        "base": "t_uint256",
        "encoding": "inplace",
        "label": "uint256[50]",
        "numberOfBytes": "1600"
      },
      "t_bool": {
        "encoding": "inplace",
        "label": "bool",
        "numberOfBytes": "1"
      },
      "t_bytes32": {
        "encoding": "inplace",
        "label": "bytes32",
        "numberOfBytes": "32"
      },
      "t_mapping(t_address,t_bool)": {
        "encoding": "mapping",
        "key": "t_address",
        "label": "mapping(address => bool)",
        "numberOfBytes": "32",
        "value": "t_bool"
      },
      "t_mapping(t_bytes32,t_struct(RoleData)416_storage)": {
        "encoding": "mapping",
        "key": "t_bytes32",
        "label": "mapping(bytes32 => struct AccessControlUpgradeable.RoleData)",
        "numberOfBytes": "32",
        "value": "t_struct(RoleData)416_storage"
      },
      "t_mapping(t_uint256,t_mapping(t_uint256,t_struct(Entitlement)11105_storage))": {
        "encoding": "mapping",
        "key": "t_uint256",
        "label": "mapping(uint256 => mapping(uint256 => struct ERC721VestedDistributor.Entitlement))",
        "numberOfBytes": "32",
        "value": "t_mapping(t_uint256,t_struct(Entitlement)11105_storage)"
      },
      "t_mapping(t_uint256,t_struct(Entitlement)11105_storage)": {
        "encoding": "mapping",
        "key": "t_uint256",
        "label": "mapping(uint256 => struct ERC721VestedDistributor.Entitlement)",
        "numberOfBytes": "32",
        "value": "t_struct(Entitlement)11105_storage"
      },
      "t_mapping(t_uint256,t_struct(Stream)11120_storage)": {
        "encoding": "mapping",
        "key": "t_uint256",
        "label": "mapping(uint256 => struct ERC721VestedDistributor.Stream)",
        "numberOfBytes": "32",
        "value": "t_struct(Stream)11120_storage"
      },
      "t_mapping(t_uint256,t_uint256)": {
        "encoding": "mapping",
        "key": "t_uint256",
        "label": "mapping(uint256 => uint256)",
        "numberOfBytes": "32",
        "value": "t_uint256"
      },
      "t_struct(Counter)5641_storage": {
        "encoding": "inplace",
        "label": "struct Counters.Counter",
        "members": [
          {
            "astId": 5640,
            "contract": "contracts/streams/ERC721/ERC721VestedDistributor.sol:ERC721VestedDistributor",
            "label": "_value",
            "offset": 0,
            "slot": "0",
            "type": "t_uint256"
          }
        ],
        "numberOfBytes": "32"
      },
      "t_struct(Entitlement)11105_storage": {
        "encoding": "inplace",
        "label": "struct ERC721VestedDistributor.Entitlement",
        "members": [
          {
            "astId": 11102,
            "contract": "contracts/streams/ERC721/ERC721VestedDistributor.sol:ERC721VestedDistributor",
            "label": "totalClaimed",
            "offset": 0,
            "slot": "0",
            "type": "t_uint256"
          },
          {
            "astId": 11104,
            "contract": "contracts/streams/ERC721/ERC721VestedDistributor.sol:ERC721VestedDistributor",
            "label": "lastClaimedAt",
            "offset": 0,
            "slot": "1",
            "type": "t_uint256"
          }
        ],
        "numberOfBytes": "64"
      },
      "t_struct(RoleData)416_storage": {
        "encoding": "inplace",
        "label": "struct AccessControlUpgradeable.RoleData",
        "members": [
          {
            "astId": 413,
            "contract": "contracts/streams/ERC721/ERC721VestedDistributor.sol:ERC721VestedDistributor",
            "label": "members",
            "offset": 0,
            "slot": "0",
            "type": "t_mapping(t_address,t_bool)"
          },
          {
            "astId": 415,
            "contract": "contracts/streams/ERC721/ERC721VestedDistributor.sol:ERC721VestedDistributor",
            "label": "adminRole",
            "offset": 0,
            "slot": "1",
            "type": "t_bytes32"
          }
        ],
        "numberOfBytes": "64"
      },
      "t_struct(Stream)11120_storage": {
        "encoding": "inplace",
        "label": "struct ERC721VestedDistributor.Stream",
        "members": [
          {
            "astId": 11107,
            "contract": "contracts/streams/ERC721/ERC721VestedDistributor.sol:ERC721VestedDistributor",
            "label": "creator",
            "offset": 0,
            "slot": "0",
            "type": "t_address"
          },
          {
            "astId": 11109,
            "contract": "contracts/streams/ERC721/ERC721VestedDistributor.sol:ERC721VestedDistributor",
            "label": "claimToken",
            "offset": 0,
            "slot": "1",
            "type": "t_address"
          },
          {
            "astId": 11111,
            "contract": "contracts/streams/ERC721/ERC721VestedDistributor.sol:ERC721VestedDistributor",
            "label": "ticketToken",
            "offset": 0,
            "slot": "2",
            "type": "t_address"
          },
          {
            "astId": 11113,
            "contract": "contracts/streams/ERC721/ERC721VestedDistributor.sol:ERC721VestedDistributor",
            "label": "emissionRate",
            "offset": 0,
            "slot": "3",
            "type": "t_uint256"
          },
          {
            "astId": 11115,
            "contract": "contracts/streams/ERC721/ERC721VestedDistributor.sol:ERC721VestedDistributor",
            "label": "claimWindowUnit",
            "offset": 0,
            "slot": "4",
            "type": "t_uint256"
          },
          {
            "astId": 11117,
            "contract": "contracts/streams/ERC721/ERC721VestedDistributor.sol:ERC721VestedDistributor",
            "label": "claimStart",
            "offset": 0,
            "slot": "5",
            "type": "t_uint256"
          },
          {
            "astId": 11119,
            "contract": "contracts/streams/ERC721/ERC721VestedDistributor.sol:ERC721VestedDistributor",
            "label": "claimEnd",
            "offset": 0,
            "slot": "6",
            "type": "t_uint256"
          }
        ],
        "numberOfBytes": "224"
      },
      "t_uint256": {
        "encoding": "inplace",
        "label": "uint256",
        "numberOfBytes": "32"
      },
      "t_uint8": {
        "encoding": "inplace",
        "label": "uint8",
        "numberOfBytes": "1"
      }
    }
  }
}